:020000040000FA
:020000002428B2
:040002000034003492
:080008008B13F100030E8312BB
:100010000313F0000A08F2008A010C1812280C1AC7
:100020001B281C280C10DC308E000B308F00A01415
:100030001C2809000C121C2872088A00700E83000C
:10004000F10E710E8B170900831603131030850013
:100050000430860000308700003088008430810042
:1000600000308B0001308C008312031307309C009A
:1000700031309000850186019230A3000A30A5003E
:100080008930A8000930A9000F30AA000A30AB005F
:100090000030A0000C30BC000A303C02031C552884
:1000A000031D532854284A284A284A28AA09AA0A7C
:1000B0002330AA0703185F28AA09A20A01342A08D4
:1000C000031D632800340234A60128082907A7006D
:1000D00003186B280800A60A08000830A2002308AD
:1000E000A40003010310A40C03187928A20B7228A2
:1000F0000800013AA20B7228080025086A3E031C7A
:100100008428031D852886280800080008000A3076
:100110002B02031C0134031D0234003482073F34D8
:1001200006345B344F3466346D347D3407347F34A9
:10013000673477347C3439345E34793471348207EF
:1001400000340134023403340434053406340734F3
:1001500008340934831203131430A2008330810061
:100160000B1DB0280B1183308100A20BB0280800B2
:1001700083120313DC308E000B308F000130A2009D
:10018000A01CC028A010A20BC02808001030A4009A
:100190002F08B3002E08B200AF01AE01B101B001CB
:1001A0000310B20DB30DB00DB10D2D083102031DBA
:1001B000DB282C083002031CE3282C08B002031CA7
:1001C000B1032D080314AE0DAF0DA40BD028080009
:1001D000B601B701350803103418B607B60CB70CD2
:1001E000B418B607B60CB70C3419B607B60CB70C72
:1001F000B419B607B60CB70C341AB607B60CB70C60
:10020000B41AB607B60CB70C341BB607B60CB70C4D
:10021000B41BB607B60CB70C0800831203178D0089
:10022000831603178C130C14831203170C08080091
:10023000831603178C181A298312031739088D00A7
:1002400038088C00831603178C130C1555308D005D
:0A025000AA308D008C140C11080078
:084000000100020003000400AE
:02400E00713F00
:10420000000001000200030004000F000600070088
:06421000080009000B008C
:00000001FF
