:060000000A128A11F12F23
:100F760064008001840A0406031900340406BC2FA9
:100F86000C308316031386008312031386018B131A
:100F9600061DD12F831203138616D42F8312031333
:100FA6008612861DCB2FC330F500CD30F400F40B2E
:100FB600DA2FF50BDA2F83120313861DCB2F861932
:100FC600E22F0310061E0314031CED2F83120313D6
:100FD6000616CB2F831203130612CB2FF001F10155
:100FE600F201F30183132030840034300A128A118F
:0A0FF600BB2783010A128A11C32FE2
:02400E003AFF77
:00000001FF
